:100000000C943E000C9448000C9448000C9448005A
:100010000C9448000C9448000C9448000C94480040
:100020000C9448000C9448000C9448000C94480030
:100030000C9448000C9448000C9448000C94480020
:100040000C9448000C9448000C9448000C94480010
:100050000C9448000C9448000C9448000C94480000
:100060000C9448000C9448000C9448000C944800F0
:100070000C9448000C9448000C94480011241FBEB6
:10008000CFEFD8E0DEBFCDBF0E944F000C94EE0052
:100090000C94000082B18C7F826082B9089581B196
:1000A000836081B9529882B18C7F82B9C0E0D0E080
:1000B00002E0FF24F39419B11470C430D10509F49F
:1000C0006DC0DCF4C230D10509F443C0C330D105A2
:1000D00009F452C0C130D105D9F00E944A0011156F
:1000E00009F47AC08FE39CE90197F1F700C00000A2
:1000F00089B182FB882780F93BC0259709F06AC047
:10010000111509F45AC082B18C7F816082B953C045
:10011000111591F08AE002B9EFE7FEE33197F1F7AC
:1001200000C00000F2B8EFE1FEE43197F1F700C043
:1001300000008A9581F7BFCF8FE39CE90197F1F723
:1001400000C000004A99B7CF92E0C92FE0E0DE2F4F
:10015000B2CF82B18C7F816082B91115A9F38FE390
:100160009CE90197F1F700C000004A9BEDCF83E0C6
:10017000C82F90E0D92F9FCF111519F00E944A0087
:10018000F6CFEFE3FCE93197F1F700C000004A99A0
:10019000EECFF4E0CF2F80E0D82F8DCF82B18C7FCF
:1001A00082B91115B1F3EFE3FCE93197F1F700C023
:1001B00000004A9BEECFF5E0EDCFEFE3FCE931978D
:1001C000F1F700C000004A99F6CFE6E0CE2FF0E04C
:1001D000DF2F71CF0E944A00F0E0DCCFF894FFCF10
:00000001FF
