:100000000C943E000C9458000C9450000C9450003A
:100010000C9450000C9450000C9450000C94500020
:100020000C9450000C9450000C9450000C94500010
:100030000C9450000C9452000C9450000C945000FE
:100040000C9450000C9450000C9450000C945000F0
:100050000C9450000C9450000C9450000C945000E0
:100060000C9450000C9450000C9450000C945000D0
:100070000C9450000C9450000C94500011241FBE9E
:10008000CFEFD8E0DEBFCDBF21E0A0E0B1E001C0FE
:100090001D92A230B207E1F70E946E000C94E100BD
:1000A0000C9400008F9381E0809301018F9118954B
:1000B0008F938FB78F939F938FE39CE90197F1F70D
:1000C00000C000004A9B04C081E080930001E898D2
:1000D000E09A9F918F918FBF8F911895F89481B17D
:1000E000836081B9529882B18C7F82B98091690016
:1000F0008C7F8093690080916900836080936900A0
:10010000E09AE89A789484E690E02FEF30E742E0B6
:10011000215030404040E1F700C000000197A9F7AE
:1001200082B18C7F826082B98FEF90E722E08150AC
:1001300090402040E1F700C0000082B18C7F82B97E
:1001400082B18C7F82B9109200011092010110924D
:10015000010110928000109285001092840083E8C3
:100160009EE1909389008093880082E080936F00E5
:100170008DE08093810080910001811104C0809105
:1001800001018115C1F3F89480918100887F8093EB
:10019000810080916F008D7F80936F00E89880913F
:1001A0000001811549F080910101811105C082B1E2
:1001B0008C7F816082B9FFCF82B18C7F826082B9EF
:0601C000FACFF894FFCF16
:00000001FF
