:100000000C943E000C9448000C9448000C9448005A
:100010000C9448000C9448000C9448000C94480040
:100020000C9448000C9448000C9448000C94480030
:100030000C9448000C9448000C9448000C94480020
:100040000C9448000C9448000C9448000C94480010
:100050000C9448000C9448000C9448000C94480000
:100060000C9448000C9448000C9448000C944800F0
:100070000C9448000C9448000C94480011241FBEB6
:10008000CFEFD8E0DEBFCDBF0E9474000C94AD006E
:100090000C94000085B908959C01FB0181E085B9AD
:1000A000CB016AE070E00E94990080E090E0681760
:1000B000790771F415B8C9018E1B9F0B6AE070E0D7
:1000C0000E94990080E090E06817790739F408955C
:1000D0004AE14A95F1F700C00196E9CF2AE12A9555
:1000E000F1F700C00196F0CF84B1836084B900E0DD
:1000F00010E0C8E7D0E0B80180E89EE30E944C0021
:100100002197C9F70056104F00328EE4180789F77F
:1001100000E213E0BE0180ED97E00E944C00015028
:100120001040C1F7CC50DE4FC43C89E0D80781F7BE
:10013000DECFAA1BBB1B51E107C0AA1FBB1FA6171E
:10014000B70710F0A61BB70B881F991F5A95A9F780
:0E01500080959095BC01CD010895F894FFCFE5
:00000001FF
