:100000000C943E000C9457000C9450000C9450003B
:100010000C9450000C9450000C9450000C94500020
:100020000C9450000C9450000C9450000C94500010
:100030000C9450000C9450000C9450000C94500000
:100040000C9450000C9450000C9450000C945000F0
:100050000C9450000C9450000C9450000C945000E0
:100060000C9450000C9450000C9450000C945000D0
:100070000C9450000C9450000C94500011241FBE9E
:10008000CFEFD8E0DEBFCDBF21E0A0E0B1E001C0FE
:100090001D92A230B207E1F70E94A9000C94F5006E
:1000A0000C94000082B18C7F826082B908951F9207
:1000B0001FB61F9211242F933F938F939F938FE32B
:1000C0009CE90197F1F700C0000089B1847020918C
:1000D0000001309101012330310589F194F4213080
:1000E000310519F12230310529F121153105A1F031
:1000F000E09A9F918F913F912F911F901FBE1F906B
:1001000018952430310501F12530310589F7811129
:10011000EFCF86E090E004C0811551F381E090E0DC
:100120009093010180930001E3CF8111E1CF82E040
:1001300090E0F6CF8115E1F283E090E0F1CF8111FC
:10014000D7CF84E090E0ECCF811591F285E090E08C
:10015000E7CF81B1836081B9529882B18C7F82B937
:10016000F894809169008C7F809369008091690088
:10017000816080936900E89AE09A7894C2E0D1E0C7
:10018000E0910001F0910101E730F105C8F7E95075
:10019000FF4F0C94EF000E945200F2CF8AE0C2B9E8
:1001A000EFE7FEE33197F1F700C00000D2B9EFE1CD
:1001B000FEE43197F1F700C000008A9581F7E0CFA7
:1001C00082B18C7F82B9DCCF82B18C7F8160FACF23
:1001D0000E9452001092010110920001D1CFEE0F47
:1001E000FF1F0590F491E02D0994F894FFCFCB0008
:0C01F000CE00E400CB00E000E400E800DA
:00000001FF
