:100000000C943E000C9453000C9453000C94530039
:100010000C9453000C9453000C9453000C94530014
:100020000C9453000C9453000C9453000C94530004
:100030000C9453000C9453000C9453000C945300F4
:100040000C9453000C9453000C9453000C945300E4
:100050000C9453000C9453000C9453000C945300D4
:100060000C9453000C9453000C9453000C945300C4
:100070000C9453000C9453000C94530011241FBE95
:10008000CFEFD8E0DEBFCDBF11E0A0E0B1E0E0E906
:10009000F2E002C005900D92A630B107D9F70E9498
:1000A000D6000C9446010C9400008F929F92AF9260
:1000B000BF92CF92DF92EF92FF920F931F93CF9355
:1000C0007C018B01C42F411116C028982FEF83EDBE
:1000D00090E3215080409040E1F700C00000CF91B4
:1000E0001F910F91FF90EF90DF90CF90BF90AF9056
:1000F0009F908F900895443609F445C09B0140E0DD
:1001000050E0CB0196958795A0E0B0E0BC01CD0111
:10011000605C7D4B804F9F4F0E940A0149015A014C
:10012000AC2FB0E00E943B0124E630E040E050E01C
:100130000E940A016901821A930A9801D7010E945C
:100140002C0128EE33E040E050E00E940A0180E0FC
:1001500090E0DC0182179307A407B50709F4BFCF2D
:10016000C114D104C9F428988114910441F0B40158
:10017000E2E0EA95F1F700C061507040C9F70196DE
:10018000A11DB11DE7CF289AEFEF23ED80E3E150E9
:1001900020408040E1F7A1CF289AB601E2E0EA953D
:1001A000F1F700C061507040C9F7DDCF00D000D03A
:1001B0000F92CDB7DEB78FEF84B925E0E0E0F1E034
:1001C000CE010196DC0101900D922A95E1F7B82E3F
:1001D000A92E6E0186E0C80ED11C0B2D1A2DEB2C1A
:1001E000FA2CF70141917F016CE370E080ED97E01C
:1001F0000E945500EC14FD04A1F7F80141918F0114
:1002000060E971E080ED97E00E9455000C151D0536
:10021000A1F7E3CFA1E21A2EAA1BBB1BFD010DC063
:10022000AA1FBB1FEE1FFF1FA217B307E407F507A6
:1002300020F0A21BB30BE40BF50B661F771F881F82
:10024000991F1A9469F760957095809590959B0118
:10025000AC01BD01CF010895A29FB001B39FC001C1
:10026000A39F700D811D1124911DB29F700D811DE2
:100270001124911D08950E942C01A59F900DB49FFB
:10028000900DA49F800D911D11240895F894FFCF27
:060290000019324B64006E
:00000001FF
