:100000000C943E000C9453000C9453000C94530039
:100010000C9453000C9453000C9453000C94530014
:100020000C9453000C9453000C9453000C94530004
:100030000C9453000C9453000C9453000C945300F4
:100040000C9453000C9453000C9453000C945300E4
:100050000C9453000C9453000C9453000C945300D4
:100060000C9453000C9453000C9453000C945300C4
:100070000C9453000C9453000C94530011241FBE95
:10008000CFEFD8E0DEBFCDBF11E0A0E0B1E0E4EEFD
:10009000F4E002C005900D92A033B107D9F70E9499
:1000A00004020C9470020C940000089580EA80937E
:1000B00000011092B90080E28093B8000895FC011D
:1000C00080E88083CF010C945600843028F4880F98
:1000D000806A8093000108958FEF0895FA0194EAF1
:1000E00024E89093BC008091BC0087FFFCCF8091F6
:1000F00000018093BB002093BC008091BC0087FF6F
:10010000FCCF8091B900883161F784EA8093BC000C
:100110008091BC0087FFFCCF809100018093BB00E1
:1001200084E88093BC008091BC0087FFFCCF709373
:10013000BB0084E88093BC008091BC0087FFFCCFAB
:100140006093BB0084E88093BC008091BC0087FF73
:10015000FCCF8091BC0087FFFCCF84EA8093BC0079
:100160008091BC0087FFFCCF809100018F5F80935E
:10017000BB0084E88093BC008091BC0087FFFCCF6B
:1001800084E88093BC008091BC0087FFFCCF809105
:10019000BB00808384E98093BC0080E0089594EAEA
:1001A00034E89093BC008091BC0087FFFCCF809125
:1001B00000018093BB003093BC008091BC0087FF9E
:1001C000FCCF8091B900883161F784EA8093BC004C
:1001D0008091BC0087FFFCCF809100018093BB0021
:1001E00084E88093BC008091BC0087FFFCCF7093B3
:1001F000BB0084E88093BC008091BC0087FFFCCFEB
:100200006093BB0084E88093BC008091BC0087FFB2
:10021000FCCF84EA8093BC008091BC0087FFFCCFB8
:10022000809100018F5F8093BB0084E88093BC00C5
:100230008091BC0087FFFCCF84EC211105C084E9CC
:100240008093BC0080E00895213009F484E8809315
:10025000BC009091BC0097FFFCCFFA019091BB00CD
:1002600091932150AF01E9CF94EA24E89093BC0028
:100270008091BC0087FFFCCF809100018093BB0080
:100280002093BC008091BC0087FFFCCF8091B90017
:10029000883161F784EA8093BC008091BC0087FFBD
:1002A000FCCF809100018093BB0084E88093BC0068
:1002B0008091BC0087FFFCCF7093BB0084E88093E3
:1002C000BC008091BC0087FFFCCF6093BB0084E83A
:1002D0008093BC008091BC0087FFFCCF4093BB00A3
:1002E00084E88093BC008091BC0087FFFCCF84E948
:1002F0008093BC0080E00895CF93DF93FB01260F2D
:10030000372F311DEC0188818150990B862B9F2B53
:100310002817390718F09C012F5F3F4F822F8E1B43
:1003200024EA34E82093BC009091BC0097FFFCCFF6
:10033000909100019093BB003093BC009091BC0061
:1003400097FFFCCF9091B900983161F794EA9093B0
:10035000BC009091BC0097FFFCCF9091000190935E
:10036000BB0094E89093BC009091BC0097FFFCCF39
:10037000F093BB0094E89093BC009091BC0097FF71
:10038000FCCFE093BB0094E89093BC009091BC003C
:1003900097FFFCCF982F24E8911106C094E9909321
:1003A000BC00DF91CF910895DA013D913093BB00FD
:1003B0002093BC003091BC0037FFFCCF9150AD01C1
:1003C000EBCFDF92EF92FF920F931F93CF93DF93C8
:1003D000D82ED92F7B018A01C22F2C2FA801B7015B
:1003E0008D2D9D2F0E947C01E80EF11CC81B080F6B
:1003F000111DC111F2CF80E0DF91CF911F910F91BC
:10040000FF90EF90DF900895CDB7DEB7E1970FB67C
:10041000F894DEBF0FBECDBF81B1836081B982B1D8
:100420008C7F82B97E0181E3E80EF11CC7010E9436
:100430005F0000E010E0DE2CCF2C40E00D32110513
:1004400021F0F801EF5FFE4F4081B8018D2D9C2D0A
:100450000E943401AFE0B7E21197F1F700C000004D
:100460000F5F1F4F0E32110541F7FE0131968FE2EB
:10047000DF011D928A95E9F78F01E12CF12C5F01D4
:1004800018AAB701AE01405D5F4FBFEFEB1AFB0A40
:100490008D2D9C2D0E946E0088A9F80181938F01FB
:1004A000811521F0FEE2EF16F10451F761E071E0F1
:1004B000C5010E946702892B29F482B18C7F81607B
:1004C00082B9FFCF82B18C7F826082B9FACFFB0103
:1004D000DC018D91019080190110D9F3990B0895D9
:0404E000F894FFCFBE
:1004E400A02A502A4F2A4C2A592A542A452A432AF8
:1004F400482A4E2A492A512A552A452A202A4D2A71
:100504004F2A4E2A542A522A452A412A4C2A0000AC
:00000001FF
