:100000000C943E000C9448000C9448000C9448005A
:100010000C9448000C9448000C9448000C94480040
:100020000C9448000C9448000C9448000C94480030
:100030000C9448000C9448000C9448000C94480020
:100040000C9448000C9448000C9448000C94480010
:100050000C9448000C9448000C9448000C94480000
:100060000C9448000C9448000C9448000C944800F0
:100070000C9448000C9448000C94480011241FBEB6
:10008000CFEFD8E0DEBFCDBF0E94A6000C94560192
:100090000C9400004A9B0AC08FE19EE40197F1F79F
:1000A00000C0000088274A998395089580E008954C
:1000B000CF93C5E00E94A1002FE788E391E0215093
:1000C00080409040E1F700C000000E949D002FE7B3
:1000D00088E391E0215080409040E1F700C00000AB
:1000E000CA9541F7CF910895CF93DF93C82FD0E001
:1000F000DC1303C0DF91CF91089595B19C7F92608E
:1001000095B92FE78AE196E0215080409040E1F7D1
:1001100000C000000E949D002FE78AE196E0215078
:1001200080409040E1F700C00000DF5FE1CF84B184
:10013000836084B952980C949D0085B18C7F85B9F9
:10014000089585B18C7F816085B908950E949700DC
:1001500010E0C0E0D0E00E944A00082FC430D10572
:1001600009F482C0D4F4C230D105B1F1C330D10555
:1001700009F46DC0C130D10501F10E949D00C02F6E
:10018000D0E010E0E8CF22E0C22F80E0D82FE3CF0C
:1001900092E0C92F20E0D22FDECF259709F06DC065
:1001A0000E94A1008FEF99E628E181509040204005
:1001B000E1F700C0000086E02EC0811521F318375A
:1001C00038F71F5F8FEF90E722E08150904020408A
:1001D000E1F700C00000BFCF0E9458000E949D00C0
:1001E0008FEF94E32CE0815090402040E1F700C075
:1001F0000000812F6AE00E944A01F82E00E0F01210
:100200000EC08FEF94E32CE0815090402040E1F746
:1002100000C0000083E0C82F90E0D92F9CCF0E943F
:10022000A1008FEF93EC29E0815090402040E1F74E
:1002300000C000000E949D008FEF93EC29E08150E8
:1002400090402040E1F700C000000F5FD8CF0E942F
:100250009D002FEF83ED90E3215080409040E1F727
:1002600000C0000024E090CF123010F495E091CF50
:10027000812F86950E947400F9CF0E949D002FEF78
:1002800080E792E0215080409040E1F700C00000FC
:1002900020E07ACF992778E0880F991F961708F009
:1002A000961B881F7A95C9F780950895F894FFCF1B
:00000001FF
