:100000000C943E000C9448000C9448000C9448005A
:100010000C9448000C9448000C9448000C94480040
:100020000C9448000C9448000C9448000C94480030
:100030000C9448000C9448000C9448000C94480020
:100040000C9448000C9448000C9448000C94480010
:100050000C9448000C9448000C9448000C94480000
:100060000C9448000C9448000C9448000C944800F0
:100070000C9448000C9448000C94480011241FBEB6
:10008000CFEFD8E0DEBFCDBF0E9480000C94D3003C
:100090000C9400000F931F93CF93DF93482F28E415
:1000A00038EEC4E6D0E002EE14E0C901BE010E94C1
:1000B000BF00D801A61BB70B88E12436310590F4A8
:1000C00012B8FD013197B8F48A95B9F7225E344031
:1000D0002E318BEF380749F712B8DF91CF911F917E
:1000E0000F91089542B9FB01319750F392E09A9530
:1000F000F1F700C0F9CF92E09A95F1F700C0E2CF96
:1001000081B1836081B9529882B18C7F82B9C0E09D
:10011000D0E04A9B28C04A9B08C08FE39CE9019726
:10012000F1F700C000004A990DC08FEC97E00197ED
:10013000F1F700C00000EFCF8FEC97E00197F1F7E7
:1001400000C000004A99F8CF8FE39CE90197F1F7CE
:1001500000C00000CD2B71F482E00E944A0091E0C3
:10016000C92F80E0D82F8FEC97E00197F1F700C0FE
:100170000000CFCF81E00E944A0090E0F1CFAA1B9F
:10018000BB1B51E107C0AA1FBB1FA617B70710F082
:10019000A61BB70B881F991F5A95A9F780959095B4
:0A01A000BC01CD010895F894FFCFD3
:00000001FF
