:100000000C943E000C9448000C9448000C9448005A
:100010000C9448000C9448000C9448000C94480040
:100020000C9448000C9448000C9448000C94480030
:100030000C9448000C9448000C9448000C94480020
:100040000C9448000C9448000C9448000C94480010
:100050000C9448000C9448000C9448000C94480000
:100060000C9448000C9448000C9448000C944800F0
:100070000C9448000C9448000C94480011241FBEB6
:10008000CFEFD8E0DEBFCDBF0E944A000C947700CE
:100090000C9400008FEF81B91AB8109889B11098AC
:1000A00089B190E001C089B182FFFDCFEFE3FCE9A7
:1000B0003197F1F700C000004A9BF5CF9F5F4A9946
:1000C0000FC0933080F389B1109A88EC90E0EFE193
:1000D000FEE43197F1F700C000000197C1F7DDCFD2
:1000E000EFE0F7E23197F1F700C00000E8CFF894B5
:0200F000FFCF40
:00000001FF
